:100000000C940B100C9433100C9433100C9433108C
:100010000C9433100C9433100C9433100C94331054
:100020000C9433100C9433100C949D1B0C940F1CE7
:100030000C9433100C9433100C9433100C94331034
:100040000C9433100C9433100C9433100C94331024
:100050000C9433100C9433100C9433100C947913CB
:100060000C9433100C9433100C9433100C94331004
:100070000C9433100C9433100C9433100C943310F4
:100080000C94C3130C9433100C9433100C94331051
:100090000C9433100C9433100C9433100C943310D4
:1000A0000C9433100C9433100C943310F4271B2849
:1000B00023283C289B2B892BE12B05A84CCDB2D4BF
:1000C0004EB93836A9020C50B9918688083CA6AAC8
:1000D000AA2ABE000000803FF0F89C8E8783878E9E
:1000E0009CF8F00000FEFF0303030303070EFCF877
:1000F0000000FEFF0303030303070EFCF80000FFEC
:10010000FF00000000000000FFFF0000FEFF8383EF
:10011000838383C7EE7C380000F8FC0E07030303DB
:10012000070EFCF800003F7FE0C08080C0E07F3F0A
:10013000FFFF01010101010101FFFF0000FFFF0CB2
:100140000C0C0C1C3E77E3C100007FFFC0C0C0C098
:10015000C0E0703F1F00001F3F70E0C0C0C0E070F3
:100160003F1F00007FFFC1C1C1C1C1E3773E1C003A
:10017000001F3F70E0C0C0C0E0703F1F00000000E3
:100180000001FFFF01000000D5F08D14A1C881CF50
:10019000D9F1AF200032003200280028001E001ED6
:1001A00000140014000A000A00008064000500C862
:1001B0000005006E000500BE00050078000500B4D3
:1001C00000050082000500AA0005008C000500A0C3
:1001D000000500960005007D000500640005004B49
:1001E00000050032000500190005000080333000D2
:1001F00000000000000000000000000080C060203F
:10020000202020A06030101010101010509050B01E
:1002100060C00000000000000000000000000000BE
:10022000000000000000000000000080F01C07013A
:1002300000000000000200000000000000000000BC
:100240000409020401071CF00000000080C0C04047
:10025000C000000000FE8202060C081810101F28C3
:100260007070E0E000E0A0A0A0E000E0E0E0E0705E
:10027000707070703838141C0A05030202030121E3
:1002800098C3F0FFEC9870C00003060C081810101B
:10029000F020E0E0E0E0E0E0E0E0E0E0E0E0E0E00E
:1002A000E0E0F0F0F0F0F0F0F838F808F80CAC56B8
:1002B000FEFFFFFFFFFF7FCF3FC07F0000000E0A61
:1002C0001A123263C285070F0F1F1D3C74B5743CB0
:1002D0003D1F1F0F0F070707030303032251A9D177
:1002E000693529292D2D37151A0D06030100000047
:1002F0000000000000000000C1771C0200008070B8
:100300000E000C0C000000000000020002028551EB
:10031000A61FF00000000000000000000000000028
:1003200000771003BFF3800080F33FF3800080F379
:10033000BF030083FF838083FF830083FF8383C326
:100340000F0083FF8383C67C000083FF8383C30F7A
:10035000000000000000FEC783C38387000083FF06
:10036000838083FF830083FF8383C30F000487831D
:100370008080800000000000000083FF8383C30FA3
:100380000083FF8383C67C0080FE07030307FE8093
:100390000083FF3BE080E03BFF83000101CFFCCF07
:1003A000010001CFFCCF01010000C1FFC101C1FF6D
:1003B000C100C1FFC1C1C3F000C1FFC103CEF8C07D
:1003C00000C1FFC1C1C3F0000000000000E0C1C1D6
:1003D000C3C1E37F00C1FFC101C1FFC100C1FFC1B3
:1003E000C1C3F000C78D889C88D970000000000050
:1003F00000C1FFC101030000C1FFC103CEF8C0016D
:100400007FE0C0C0E07F0100C1FFC0060706C0FF5B
:10041000C1320019007D0032000080FA003200F481
:10042000016400008032000A00F4010A0019000A89
:1004300000FA004B00C80032009600190064001951
:100440000032000F0019000A00008032000A00EE9E
:10045000021400BC020F008A020A00F4010500FA2F
:10046000000500190005000080605361626973682F
:1004700069694E696B6B6960005468616E6B7320CB
:10048000666F7220706C6179696E672E00546861C6
:100490007420776F6D616E2069732053756E626F83
:1004A000726E2E00776861742077697468206865C1
:1004B000722068616269747320616E6420616C6C83
:1004C0002E2E2E00596F752764207468696E6B207C
:1004D00069742764206265206F6276696F75732C7A
:1004E000007368652061696E2774206E6F206E6FDF
:1004F000726D616C206C6164792E004920677565AE
:100500007373206E6F206F6E65207175697465203E
:100510007265616C697A6573006049726F6E20471D
:1005200061746C696E67204A61636B602069732037
:1005300061732077656C6C2E005368652773206C9F
:10054000696B6520616E206F6D656E2C207468612B
:100550007420776F6D616E2E00416C6C277320776D
:1005600068617420676F74206865722074686174B4
:10057000206E616D652E00556E646572207468652D
:1005800020626C6973746572696E272073756D6D76
:1005900065722073756E2E00412068616269742057
:1005A0006F662073686F77696E6720617420686971
:1005B0006768206E6F6F6E2E0054686579206361E6
:1005C0006C6C206865722060486561747374726F2A
:1005D0006B6560206E6F772E00536865277320610E
:1005E0002071756965742C20727574686C657373FD
:1005F000206B696C6C65722E00416C6C206F6620FC
:100600007468656D207075742075702074686569F4
:10061000722067756172642E004C61776D656E2C77
:10062000206F75746C6177732C20636F6D6D6F6EC6
:1006300020666F6C6B2E2E2E00576F7264207374C1
:10064000617274732067657474696E272061726FBC
:10065000756E642E00416C6C2069742074616B654A
:1006600073206973206F6E6520737472616E6765A5
:100670002067616C2E0042757420616E2061726D7E
:100680007920646F6E277420616C776179732063C1
:1006900075742069742E00596561682C207374721A
:1006A000656E67746820696E206E756D6265727321
:1006B0002E2E2E00546865736520666F6C6B732058
:1006C0006F7567687420746F206C6561726E2E00A0
:1006D00049742773206D6967687479207269736B38
:1006E00079206F757420686572652E004175677595
:1006F00073742031332C20313837370041756775DA
:10070000737420332C2031383737004A756C7920C8
:1007100032392C2031383737004A756C7920323421
:100720002C2031383737004A756C792032332C2031
:1007300031383737004A756C792031382C20313800
:100740003737004A756C792031372C2031383737EC
:10075000004A756C792031342C2031383737004A03
:10076000756C792031312C2031383737004A756C5F
:100770007920392C2031383737004A756C7920358B
:100780002C2031383737004A756C7920312C2031D4
:10079000383737004A756E652032392C20313837AA
:1007A00037004A756E652032332C203138373700D8
:1007B0004A756E652032312C20313837370052654A
:1007C0007475726E20746F205469746C6520536365
:1007D0007265656E005265747279204D6973736934
:1007E0006F6E0073616269736869696E696B6B69CA
:1007F0002E6769746875622E696F2F5753460046DD
:100800006F722068656C7020616E6420637265642D
:100810006974732C20676F20746F3A0048696768A9
:10082000004E6F726D616C004F666600423A205355
:100830006F756E6400413A20537461727420476191
:100840006D6500574845524520534845275320467B
:10085000524F4D00080B0002020201000904000083
:100860000102020000052400100105240101010419
:100870002402060524060001070581031000400933
:10088000040100020A000000070502024000000700
:100890000583024000000403090412010002EF0274
:1008A0000140412336800001010203014172647559
:1008B000696E6F204C4C430041726475626F790021
:1008C0000102040810204080430835082C0828083D
:1008D00021081C08FF07E307D507BE07B007A207DA
:1008E000940787077A076D075F07510743073507A6
:1008F000270719070B07FC06EC06D006B406970677
:100900007606550639061906F905D905B90598057B
:100910007705590539051905FB04E104C404A4044D
:100920008D04790469040908E7BDE78AD28AE7BD26
:10093000E7070878CC85B5A5CC78181800C000E08A
:1009400000F000F800FC00FE00FF7CFF82FF7AFF51
:10095000FAFFFAFFFAFFFAFF7AFF82FF7CFF00FF3F
:1009600000FE00FC00F800F000E000C000FF00FF07
:10097000FFFF81FF81FF81FF81FF42FF24FF19FFFD
:1009800082FF45FF45FF82FF19FF24FF42FF81FFE1
:1009900081FF81FF81FFFFFF00FF00FF00030007D1
:1009A000000F001F003F007F00FF00FF3EFF21FF00
:1009B00020FF20FF20FF20FF21FF3EFF00FF00FF60
:1009C000007F003F001F000F0007000300C000E091
:1009D00000F000F800FC00FE00FF00FF7CFF84FF39
:1009E00004FF04FF04FF04FF84FF7CFF00FF80FF7F
:1009F00080FE80FC80F880F000E000C000FF00FF77
:100A0000FFFF81FF81FF81FF81FF42FF24FF18FF6D
:100A100081FF42FF42FF99FF24FF5AFFBDFF7EFF87
:100A20007EFF7EFF7EFF00FFFFFF00FF0003000749
:100A3000000F001F003F007F00FF00FF3EFF21FF6F
:100A400020FF20FF20FF20FF21FF3EFF00FF01FFCE
:100A5000017F013F011F010F0007000300C000E0FC
:100A600000F000F800FC00FE00FF00FF7CFF84FFA8
:100A700004FF04FF04FF04FF84FF7CFF00FF00FF6E
:100A800000FE00FC00F800F000E000C000FF00FFE6
:100A9000FFFF81FF81FF81FF81FF42FF24FF98FF5D
:100AA00041FFA2FFA2FF41FF98FF24FF42FF81FF09
:100AB00081FF81FF81FFFFFF00FF00FF00030007B0
:100AC000000F001F003F007F00FF3EFF41FF5EFF61
:100AD0005FFF5FFF5FFF5FFF5EFF41FF3EFF00FFC5
:100AE000007F003F001F000F0007000300C000E070
:100AF00080F080F880FC80FE80FF00FF7CFF84FF98
:100B000004FF04FF04FF04FF84FF7CFF00FF00FFDD
:100B100000FE00FC00F800F000E000C000FFFFFF56
:100B200000FF7EFF7EFF7EFF7EFFBDFF5AFF24FF9A
:100B300099FF42FF42FF81FF18FF24FF42FF81FF20
:100B400081FF81FF81FFFFFF00FF00FF000300071F
:100B5000010F011F013F017F01FF00FF3EFF21FF49
:100B600020FF20FF20FF20FF21FF3EFF00FF00FFAE
:100B7000007F003F001F000F0007000304087E0BEA
:100B80007F007F5B76007E4341007F437E007F498C
:100B900041007F0901007E4379007F087F00417F8B
:100BA000410070603F007F1C77007F4040007F065F
:100BB0007F007E037F007E437F007F0B0E007EE37D
:100BC0007F007F1B76004E6B3900017F01007F4064
:100BD0007F003F603F007F307F00771C77000F78F9
:100BE0000F00715D47007E437F00027F0000794D5A
:100BF000470041497F000E087F00474D79007E4B3A
:100C0000790003017F007E4B7F000E0B7F00606048
:100C1000000060E00000000300006F6F0000626BE6
:100C20000D070000000003000300792C7D00701CFC
:100C300007000036000008080107040F0A1F1C3EC9
:100C4000387C70F8A0F040E080E020F050F8387C6C
:100C50001C3E0E1F050F02070207050F0E1F1C3E4C
:100C6000387C50F820F080E040E0A0F070F8387C4C
:100C70001C3E0A1F040F01071318808080808080AB
:100C8000E0E038F80CFC14FC0CFC04FC04FC04FC54
:100C900084FC9CFC70F040C040C0C0C0000000005C
:100CA000030306073C3F6C7FC1FF0DFF15FFD5FF17
:100CB0001DFF8DFF0DFF0CFF40FFEEFFDEFF5E7F8F
:100CC0006D7F333F1E1E0000C0C060E07FFF21FF2C
:100CD00000FF1EFFE1FF243FE0FF00FF00FF20FFB9
:100CE00070FFD3DF1E1E00000000000080808080A7
:100CF0008080E0E038F80CFC14FC0CFC04FC04FCE4
:100D000004FC84FC9CFC70F040C040C0C0C00000EB
:100D10000000030306073C3FECFF41FF0DFF15FFFA
:100D2000D5FF1DFF8DFF0DFF0CFF40FFEEFF5E7F27
:100D30005E7F6D7F333F1E1E00000000FFFF61FFDE
:100D400060FF20FF9EFF41FF64FF20FF00FF00FFC8
:100D5000E0FF213F3F3F0000000000000000C0C056
:100D600040C040C070F09CFC86FE8AFE86FE82FE7B
:100D700082FE82FE42FE4EFE38F820E020E0E0E0F7
:100D800080800000010103031E1FF6FF60FF06FFC5
:100D90000AFFEAFF0EFF46FF06FF06FF20FF77FF70
:100DA000EFFF2F3F363F191F0F0F1E1E323E677F8A
:100DB000417F607F303F101F1F1F101F121F101F29
:100DC000101F101F101F313F637F467E7C7C000088
:100DD000C0C040C040C070F09CFC86FE8AFE86FE0B
:100DE00082FE82FE82FE42FE4EFE38F820E020E0C7
:100DF000E0E080800000010103031E1FB6BFE0FF9A
:100E000006FFCAFF2AFF4EFF06FF06FF06FF20FF70
:100E100077FFEFFF2F3F363F191F0F0F0000000035
:100E20000F0F090F1C1F333F647F427F607F707F6D
:100E3000507F707F101F181F090F0F0F0000000058
:100E400000000000000000000000C0C060E060E0A2
:100E5000E0E020E020E020E020E0E0E08080000012
:100E600000000000000000003C3C647CC4FC47FF24
:100E700009FF10FF91FF90FF90FF10FF50FF48FF08
:100E800008FFA7FF72FE72FEB6FECCFC7878000069
:100E9000F0F01DFD07FF02FF00FFF8FF06FF20FF37
:100EA00004FF00FF00FF02FF8FFF49F939F9E1E17C
:100EB00000000000131800000000C0C040C040C087
:100EC00070F09CFC84FC04FC04FC04FC0CFC14FC92
:100ED0000CFC38F8E0E08080808080801E1E333F6C
:100EE0006D7F5E7FDEFFEEFF40FF0CFF0DFF8DFF8D
:100EF0001DFFD5FF15FF0DFFC1FF6C7F3C3F0607AF
:100F000003030000000000001E1ED3DF70FF20FF5F
:100F100000FF00FFE0FF243FE1FF1EFF00FF21FF75
:100F20007FFF60E0C0C0000000000000C0C040C003
:100F300040C070F09CFC84FC04FC04FC04FC0CFC31
:100F400014FC0CFC38F8E0E08080808080801E1E5D
:100F5000333F6D7F5E7F5E7FEEFF40FF0CFF0DFF36
:100F60008DFF1DFFD5FF15FF0DFF41FFECFF3C3F3F
:100F70000607030300000000000000003F3F213F80
:100F8000E0FF00FF00FF20FF64FF41FF9EFF20FF06
:100F900060FF61FFFFFF0000000000008080E0E0D4
:100FA00020E020E038F84EFE42FE82FE82FE82FE05
:100FB00086FE8AFE86FE9CFC70F040C040C0C0C029
:100FC0000F0F191F363F2F3FEFFF77FF20FF06FF60
:100FD00006FF46FF0EFFEAFF0AFF06FF60FFF6FF6F
:100FE0001E1F0303010100007C7C467E637F313FAE
:100FF000101F101F101F101F121F101F1F1F101F68
:10100000303F607F417F677F323E1E1E0000808040
:10101000E0E020E020E038F84EFE42FE82FE82FE54
:1010200082FE86FE8AFE86FE9CFC70F040C040C0B8
:10103000C0C00F0F191F363F2F3FEFFF77FF20FF74
:1010400006FF06FF06FF4EFF2AFFCAFF06FFE0FF6E
:10105000B6BF1E1F030301010000000000000F0FB8
:10106000090F181F101F707F507F707F607F427FB5
:10107000647F333F1C1F090F0F0F000000000000AA
:1010800000000000000000008080E0E020E020E0A0
:1010900020E020E0E0E060E060E0C0C00000000090
:1010A000000000007878CCFCB6FE72FE72FEA7FF4E
:1010B00008FF48FF50FF10FF90FF90FF91FF10FFC7
:1010C00009FF47FFC4FC647C3C3C00000000E1E1F8
:1010D00039F949F98FFF02FF00FF00FF04FF20FFED
:1010E00006FFF8FF00FF02FF07FF1DFDF0F0000004
:1010F00010100000C0C0F0F0E8F8F4FCFCFCFEFEAC
:10110000FEFEFEFEDAFEE4FCE4FCD8F8F0F0C0C01F
:101110000000000003030D0F121F213F213F527FEB
:101120006D7F7F7F7F7F3F3F2F3F171F0F0F030391
:10113000000018200000000000008080C0C060E0B7
:10114000A0E020E0A0E020E0A0E020E0A0E020E09F
:1011500060E040C040C0C0C08080000000000000CF
:1011600000000000000000000000FFFF00FFD1FFB2
:10117000E2FFC3FFD2FF91FF81FF43FFBEFF55FF98
:101180004AFF21FF74FF5EDFC3C3808000000000C0
:10119000000000000000000000003F3FE0FFD9FF1A
:1011A00037FF6FFF87FF83FF83FF3DFF56FF3FFF42
:1011B0003EFFC7FFF5FF57FF70FF8FFFF8F80000F5
:1011C0000000000000000000000000000F0F181FCA
:1011D000161F343FE4FF80FF12FF44FF50FF70FFF3
:1011E00004FFAEFFE8FF273F3D3D01010000000086
:1011F000000000000000000000008080C0C060E02F
:10120000A0E020E0A0E020E0A0E020E0A0E020E0DE
:1012100060E040C040C0C0C080800000000000000E
:1012200000000000000000000000FFFF00FFD1FFF1
:10123000E2FFC3FFD2FF91FF81FF43FFBEFF55FFD7
:101240004AFF21FF74FF5EDFC3C3808000000000FF
:1012500000000000000000000000BFBFE0FF59FFD9
:1012600037FF6FFF87FF83FF83FF7DFF56FF7FFF01
:101270007EFF37FFCDFF6FFF14FF7BFFD6FE74FCB0
:101280008CFCF8F80000000000000F0FF8FF07FFCB
:10129000C6FF647F283F2C3F2C3F2C3FE0FF20FF00
:1012A00050FF70FF64FF09FFB8FFE8EF0C0F06075F
:1012B0000303000000000000000000000000000028
:1012C000000000000000000000000000000000001E
:1012D000000000000000000000000000000000000E
:1012E00000000000C0C060E0B0F058F8A8F84CFC66
:1012F000A4FC54FC64FCD6FEAAFE52FE02FE9EFE36
:10130000F0F00000000000000000000000000000FD
:101310000000000007071C1F727FC3FF02FFE1FFF0
:10132000F0FFF0FFF8FF78FF3BFFC8FF62FFF0FF20
:10133000E1FF73FFD6FEF4FC4CFCB8F860E040C05F
:10134000C0C08080000000007878CFFF02FFDCFF83
:10135000437F457F487F487F487FC7FF05FF07FFE2
:1013600007FF33FF44FF96FF01FF07FFCDFF677FB5
:10137000383F0F0F182000000000000000000000A0
:101380008080C0C040C040C060E020E0A0E020E01D
:10139000A0E020E0A0E020E0A0E060E0C0C080800D
:1013A000000000000000000000000000000080803D
:1013B000C3C35EDF74FF21FF4AFF55FFBEFF43FF3B
:1013C00081FF91FFD2FFC3FFE2FFD1FF00FFFFFFCC
:1013D000000000000000000000000000F8F88FFF8F
:1013E00070FF57FFF5FFC7FF3EFF3FFF56FF3DFF72
:1013F00083FF83FF87FF6FFF37FFD9FFE0FF3F3F8A
:1014000000000000000000000000000000000101DA
:101410003D3D273FE8FFAEFF04FF70FF50FF44FF54
:1014200012FF80FFE4FF343F161F181F0F0F00004C
:1014300000000000000000000000000000000000AC
:101440008080C0C040C040C060E020E0A0E020E05C
:10145000A0E020E0A0E020E0A0E060E0C0C080804C
:10146000000000000000000000000000000080807C
:10147000C3C35EDF74FF21FF4AFF55FFBEFF43FF7A
:1014800081FF91FFD2FFC3FFE2FFD1FF00FFFFFF0B
:10149000000000000000F8F88CFC74FCD6FE7BFF16
:1014A00014FF6FFFCDFF37FF7EFF7FFF56FF7DFFED
:1014B00083FF83FF87FF6FFF37FF59FFE0FFBFBF49
:1014C0000000000000000000030306070C0FE8EF17
:1014D000B8FF09FF64FF70FF50FF20FFE0FF2C3FC3
:1014E0002C3F2C3F283F647FC6FF07FFF8FF0F0FFC
:1014F00000000000000000000000000000000000EC
:1015000000000000000000000000000000000000DB
:1015100000000000000000000000000000000000CB
:1015200000000000000000000000000000000000BB
:101530000000000000000000F0F09EFE02FE52FEDF
:10154000AAFED6FE64FC54FCA4FC4CFCA8F858F897
:10155000B0F060E0C0C08080C0C040C060E0B8F8BB
:101560004CFCF4FCD6FE73FFE1FFF0FF62FFC8FF06
:101570003BFF78FFF8FFF0FFF0FFE1FF02FFC3FF42
:10158000727F1C1F07070F0F383F677FCDFF07FFD4
:1015900001FF96FF44FF33FF07FF07FF05FFC7FF6B
:1015A000487F487F487F457F437FDCFF02FFCFFFB6
:1015B0007878000000001610000000000000000015
:1015C000000000000000000000000000000000001B
:1015D000000000000000000000000000000000000B
:1015E00000000000000000000000000000000000FB
:1015F00000000000000000000000000000000000EB
:10160000000000001F1F111F151F131F111F1E1E9A
:1016100000000000000000000000000000000000CA
:1016200000000000000000008080C0C040C040C03A
:1016300040C040C040C040C040C0808000000000AA
:10164000000000000000000000000000000000009A
:101650000000000003030E0F080F0B0F090F0C0F03
:10166000060702030203030300000000000000005D
:10167000000000000000000000000000000000006A
:1016800000000000000000008080C0C040C0C0C05A
:10169000000000000000000000000000000000004A
:1016A000000000000000000000000000000000003A
:1016B000000000000F0FF8FF82FFC1FF797F0E0EC0
:1016C000000000000000000000000000000000001A
:1016D000808080808080808080808080808080800A
:1016E00080808080808080808080000000000000FA
:1016F00000000000000000000000000003030607D7
:101700000C0F080F080F080F080F080F0C0F0A0F17
:10171000080F0C0F0407070700000000000000007E
:10172000000000000000000000000000C0C060E0F9
:1017300020E060E040C040C060E020E0A0E0E0E0E9
:101740000000000000000000000000000000000099
:101750000000000000000000010101010101010181
:1017600007070C0F1A1F101F161F191F090F0E0E47
:101770000000000000000000000000000000C0C0E9
:1017800040C040C040C040C040C040C040C040C059
:1017900040C040C0C0C080800000000000000000C9
:1017A000000000000000000000000303060704071B
:1017B000040704070F0F080F090F090F1A1F101F46
:1017C000161F191F090F0E0EE0E0A0E0E0E0A0E0F8
:1017D000A0E0A0E020E0E0E020E020E020E020E049
:1017E00020E020E030F0D0F030F020E0A0E060E039
:1017F00080800000000000000000000000000101E7
:1018000001010101010101010101010101010101C8
:1018100003030607050704070D0F080F080F0F0F36
:1018200000000000000000000000000000000000B8
:1018300000000000000000000000000000003C3C30
:10184000667EC3FF89FF15FF43FFFEFE0000000018
:101850000000000000000000000000000000000088
:101860000000000000000000000000000000000078
:101870000101010101010101000000000000000060
:101880000000FEFE82FE9EFE92FE82FE86FEACFC04
:10189000A8F88CFC34FC34FC34FC36FE33FFC5FF66
:1018A0001DFFFFFF0000000000000000000000001E
:1018B0000000000000000000000000000000010126
:1018C00001010101010101010303020303030101FD
:1018D00000000000000000000000F8F8ACFC14FC60
:1018E000ACFCA8F8A8F8A8F8A8F8A8F8A8F8ACFCE8
:1018F00014FC0CFCF4FCF4FCF4FCFCFC0000000008
:1019000000000000000003030607040706070203A7
:101910000203020302030203020306070407060789
:10192000040704070407070713180000808080805D
:101930008080C0C060E0A0E030F090F0D0F0D0F047
:10194000D0F030F060E040C040C0C0C000000000F7
:1019500000000F0F181F121FF4FF84FF05FF85FF03
:1019600005FF85FF85FFC2FF22FF3AFFE9FF647F85
:10197000477F7C7C000000000000000000000000A9
:101980000F0F383FE3FF14FF01FFC2FFB0FFFCFF62
:101990000607030300000000000000000000808034
:1019A00080808080C0C060E0A0E030F090F0D0F097
:1019B000D0F0D0F030F060E040C040C0C0C00000C7
:1019C000000000000F0F181F121FF4FF84FF05FF17
:1019D00085FF05FF85FF85FFC2FF22FF3AFF29FF34
:1019E00064FFC7FFFCFC00000000000000000000D6
:1019F0000000FFFF18FF03FFE4FF333FE3FF03FF97
:101A000018FFFFFF121F141F101F1F1F00000000F0
:101A100000000000000000000000808080808080C6
:101A200080808080808000000000000000000000B6
:101A3000000000007878C8F8A8F84EFE43FF5DFF6C
:101A400059FF5CFF5EFF2EFF2EFF11FF53FF6AFE62
:101A500052FE4EFEF8F88080000000003E3E233F1C
:101A60002B3FF2FF0CFF0CFFC0FF4C7F507F4C7FE1
:101A7000CEFF0CFF02FF3EFF30FFF4FF191F0F0FD8
:101A80001610000000000000000000000000000030
:101A90000000000000000000000000000000000046
:101AA00000000000000000000000000000001E1EFA
:101AB000111F131F151F111F1F1F00000000000022
:101AC0000000000000000000000000000000000016
:101AD00000000000000000000000808040C040C006
:101AE00040C040C040C040C040C0C0C08080000076
:101AF00000000000000000000000000000000000E6
:101B000000000000000003030203020306070C0F9D
:101B1000090F0B0F080F0E0F030300000000000059
:101B200000000000000000000000000000000000B5
:101B3000000000000000C0C040C0C0C080800000A5
:101B40000000000000000000000000000000000095
:101B500000000000000000000000000000000E0E69
:101B6000797FC1FF82FFF8FF0F0F00000000000027
:101B70000000000000000000000000000000000065
:101B80000000000000000000000000008080808055
:101B90008080808080808080808080808080808045
:101BA0008080808080800000000000000000000035
:101BB000000000000000070704070C0F080F0A0FC1
:101BC0000C0F080F080F080F080F080F0C0F06075F
:101BD00003030000000000000000000000000000FF
:101BE000000000000000E0E0A0E020E060E040C075
:101BF00040C060E020E060E0C0C0000000000000E5
:101C000000000000000000000000000000000E0EB8
:101C1000090F191F161F101F1A1F0C0F07070101AC
:101C200001010101010100000000000000000000AE
:101C300000000000000000000000000000008080A4
:101C4000C0C040C040C040C040C040C040C040C014
:101C500040C040C040C0C0C0000000000000000004
:101C60000000000000000E0E090F191F161F101FA4
:101C70001A1F090F090F080F0F0F040704070407A5
:101C80000607030300000000000000000000000041
:101C900000000000808060E0A0E020E030F0D0F0A4
:101CA00030F020E020E020E020E020E020E0E0E054
:101CB00020E0A0E0A0E0A0E0E0E0A0E0E0E00F0F86
:101CC000080F080F0D0F040705070607030301019E
:101CD00001010101010101010101010101010101F4
:101CE00000000000000000000000FEFE43FF15FFA2
:101CF00089FFC3FF667E3C3C00000000000000003E
:101D000000000000000000000000000000000000D3
:101D100000000000000001010101010101010000BB
:101D200000000000000000000000000000000000B3
:101D300000000000000000000000000000000000A3
:101D40000000FFFF1DFFC5FF33FF36FE34FC34FCEF
:101D500034FC8CFCA8F8ACFC86FE82FE92FE9EFE53
:101D600082FEFEFE000000000000000000000101F5
:101D70000303020303030101010101010101010148
:101D80000000000000000000000000000000000053
:101D900000000000000000000000FCFCF4FCF4FC6B
:101DA000F4FC0CFC14FCACFCA8F8A8F8A8F8A8F803
:101DB000A8F8A8F8ACFC14FCACFCF8F80000000093
:101DC00000000000000007070407040704070607D7
:101DD00004070607020302030203020302030203CD
:101DE00006070407060703030000000000000000C8
:101DF0000000131800000000C0C040C040C060E0F8
:101E000030F0D0F0D0F0D0F090F030F0A0E060E012
:101E1000C0C0808080808080000000007C7C477F84
:101E2000647FE9FF3AFF22FFC2FF85FF85FF05FFC0
:101E300085FF05FF84FFF4FF121F181F0F0F00001E
:101E4000000000000000000003030607FCFFB0FFD5
:101E5000C2FF01FF14FFE3FF383F0F0F0000000037
:101E600000000000000000000000C0C040C040C0F2
:101E700060E030F0D0F0D0F0D0F090F030F0A0E0A2
:101E800060E0C0C080808080808000000000FCFC9A
:101E9000C7FF64FF29FF3AFF22FFC2FF85FF85FFCE
:101EA00005FF85FF05FF84FFF4FF121F181F0F0FAA
:101EB000000000001F1F101F141F121FFFFF18FF3C
:101EC00003FFE3FF333FE4FF03FF18FFFFFF0000C2
:101ED0000000000000000000000000000000000002
:101EE00000000000000080808080808080808080F2
:101EF00080800000000000000000000000000000E2
:101F00008080F8F84EFE52FE6AFE53FF11FF2EFF4E
:101F10002EFF5EFF5CFF59FF5DFF43FF4EFEA8F8FA
:101F2000C8F878780F0F191FF4FF30FF3EFF02FF4B
:101F30000CFFCEFF4C7F507F4C7FC0FF0CFF0CFF8F
:101F4000F2FF2B3F233F3E3E000008083C3C567EFC
:101F50008DFFD7FFAFFFFDFF5A7E3C3C00003C3CAD
:101F60004A7E4E7E7E7E5A7E3C3C00000000000091
:101F700018182C3C343C1818000000000000000029
:101F80000000081818180000000000001010008061
:101F900000C080FC18FCC8FC20FCD0FEF4FFF4FF5D
:101FA000F0FEE0FCC8FC18FC80FC00C000800001D2
:101FB0000003013F183F133F043F097F2BFF2BFF16
:101FC0000B7F053F133F183F013F00030001180836
:101FD00020002010305038583C5E3E5F3F5F3F5E2F
:101FE0003E5C381830100010101060780D707C0DB9
:101FF000707D7D710D7D700D7860061EB00E3EB057
:102000000EBEBE8EB0BE0EB01E060808F5D9F5791C
:10201000F5D9F579323211241FBECFEFDAE0DEBFF9
:10202000CDBF11E0A0E0B1E0ECEFFCE602C005900E
:102030000D92AC33B107D9F727E0ACE3B1E001C0B2
:102040001D92A433B207E1F710E1CBE0D0E104C068
:102050002197FE010E945D36CA30D107C9F70E9460
:1020600095240C947C360C940000CF92DF92EF9272
:10207000FF920F931F93CF93DF936C017A018B0133
:10208000C0E0D0E0CE15DF0581F0D8016D918D0163
:10209000D601ED91FC910190F081E02DC6010995EA
:1020A000892B11F02196EECF7E01C701DF91CF91F0
:1020B0001F910F91FF90EF90DF90CF900895809146
:1020C000F201E091F001F091F101882349F0CF0194
:1020D00002969093F1018093F00185919491089577
:1020E000CF0102969093F1018093F001808191815C
:1020F0000895CF92DF92EF92FF920F931F93CF93A9
:10210000DF930E945F10811520E8920761F48091AF
:1021100071008D7F809371001092910046984798CE
:102120001092EF018BC021E02093EF01813020E875
:10213000920751F48091ED019091EE019093F1019D
:102140008093F0010E945F1097FD05C02091DF0190
:10215000222309F43FC02091E00121113BC021E07E
:102160002093F301EC01DF77209769F481E08093FD
:10217000F40146983FE9C32E3FE0D32EE12CF12C29
:10218000CAEFD0E014C08E0120E030E060E472E4D9
:102190008FE090E0A90198010E94273369017A013C
:1021A00081E0C81AD108E108F1081092F401E09129
:1021B0003806F09139060995811103C081E08093BA
:1021C000F4018091F3018823B9F18091F401811128
:1021D00033C003C01092F301C5CF46992DC0479A72
:1021E0000E945F10009771F09C01DE010E947B331A
:1021F000DC01CB0129E0B595A795979587952A95A0
:10220000D1F703C08FEF9FEFDC01109290002AE01E
:1022100020939100D0929900C09298008093F5018C
:102220009093F601A093F701B093F80180917100AB
:1022300082608093710002C04798D2CFDF91CF9126
:102240001F910F91FF90EF90DF90CF9008954F92E4
:102250005F926F927F928F929F92AF92BF92CF9236
:10226000DF92EF92FF920F931F93CF93DF9300D0F3
:1022700000D0CDB7DEB73A0149012C2DA02EB12CEC
:10228000A501480F591F141615060CF0B4C180386B
:1022900091050CF0B0C1FB01EE0DF11D1E161F06DD
:1022A0000CF0A9C1603471050CF0A5C16114710472
:1022B00009F4A1C1FB0177FF04C0EE27FF27E61B4D
:1022C000F70B3E2F3770F32EFB0177FD379633E087
:1022D000F595E7953A95E1F73E2F77FF07C0FF2088
:1022E00029F03FEF3E0F68E06F19F62E97FF05C00B
:1022F000EE27FF27E81BF90B02C0E0E0F0E04038D2
:1023000051051CF050E8581B01C0502F5E1B632F75
:10231000032E000C770B3F3F1CF4462F409501C065
:1023200040E0B1E0AE2DA77009F4B0E0E694E69489
:10233000E694EB0E6E0D711D693071051CF068E0BE
:10234000E62EE31AE41A340F60E83603800D911D7F
:1023500011248E0F9F1F049FE00DF11D1124B30166
:102360006E0F7F1F01E010E00F2C02C0000F111F45
:102370000A94E2F7233009F4FBC0A8F4213009F4F1
:10238000AEC0223009F037C12FEF209F6001219F9E
:10239000D00C1124C094D094DA82C9824A818A5F19
:1023A0009D4FE30E27C02A3FC1F12B3F09F023C107
:1023B0008A5F9D4FE30E82C0F2012491209F40016D
:1023C000219F900C11249C828B8237FD04C02C919C
:1023D0002C21822A8C92F11013C0FFEF4F1A5F0A52
:1023E0001196242D261B251738F33F5F6A0D7B1DA0
:1023F00080589F4F3E1509F4FEC0DC012B01F1CF40
:1024000037305CF74D01F0E88F0E911CF40120810C
:1024100024237C8027292083E0CF8A5F9D4FE30E11
:102420003E1509F4E8C0DC014B01282D261B2517B9
:1024300000F5F4012491209F6001219FD00C11240C
:10244000DC82CB8237FD03C02C91C22ACC92FF20C4
:1024500059F037304CF46D01F0E8CF0ED11CF60185
:1024600040812C81242B2083FFEF8F1A9F0A119625
:10247000DCCF3F5F6A0D7B1D80589F4FD1CF2491E9
:10248000209FD001219FB00D1124BC83AB8337FD69
:1024900006C04A2F4095D6012C9124232C93F1108D
:1024A00013C03196BFEFCB1ADB0A2E2F261B251740
:1024B00030F33F5F6A0D7B1D80589F4F3E1509F436
:1024C0009AC06C01FB01F1CF37305CF7D601A05800
:1024D000BF4F2C8120954C9124232C93E2CFD40123
:1024E000AE0FBF1F8A5F9D4FE30E3E1509F483C0F8
:1024F0006C01812C912C851698F5FD01E80DF91DD4
:10250000E491E09F3001E19F700C1124609470947D
:102510007A826982FB01E80DF91DE491E09F2001B8
:10252000E19F500C11245C824B8237FD05C0F601FF
:102530002081622246284082FF2059F037304CF437
:10254000F601E058FF4F40812A8124234C81242B3F
:102550002083FFEF8F1A9F0A2FEFC21AD20ACBCF28
:102560003F5F6A0D7B1DAA0DBB1D80589F4FBDCFDD
:10257000852E912CE60FF71FDC01AA5FBD4FBC0131
:102580006A577D4F80E890E06C01C818D908A818F8
:10259000B908AA0CBB1C952F652E7E2CCF93DF9318
:1025A000EB0185904591FF2059F0809E4001409FAE
:1025B000A00137302CF4288150952523292929930F
:1025C00033233AF02C914095242328292D930C9401
:1025D000EA1211969A9529F7EA9451F0962D3395BF
:1025E0001124EA0DF11DAC0DB11DCC0DD11DD9CFBB
:1025F000DF91CF9111240F900F900F900F90DF91EA
:10260000CF911F910F91FF90EF90DF90CF90BF90EF
:10261000AF909F908F907F906F905F904F900895B4
:102620008091EC0108950895089580E090E0089568
:102630000E9477363FB7F8948091FA019091FB01A0
:10264000A091FC01B091FD0126B5A89B05C02F3FCC
:1026500019F00196A11DB11D3FBFBA2FA92F982FC8
:102660008827820F911DA11DB11DBC01CD0142E043
:10267000660F771F881F991F4A95D1F708958F928B
:102680009F92AF92BF92CF92DF92EF92FF926B0137
:102690007C010E941A134B015C01C114D104E104B6
:1026A000F104F1F00E941A13DC01CB018819990999
:1026B000AA09BB09883E9340A105B10570F321E04A
:1026C000C21AD108E108F10888EE880E83E0981E4E
:1026D000A11CB11CC114D104E104F10419F7DDCF30
:1026E000FF90EF90DF90CF90BF90AF909F908F9032
:1026F00008951F920F920FB60F9211242F933F93BC
:102700008F939F93AF93BF9380913C0190913D0134
:10271000A0913E01B0913F013091F90123E0230FD8
:102720002D3720F40196A11DB11D05C026E8230F09
:102730000296A11DB11D2093F90180933C01909355
:102740003D01A0933E01B0933F018091FA01909129
:10275000FB01A091FC01B091FD010196A11DB11DED
:102760008093FA019093FB01A093FC01B093FD01CB
:10277000BF91AF919F918F913F912F910F900FBE7D
:102780000F901F9018951F920F920FB60F92112461
:102790002F933F934F935F936F937F938F939F9369
:1027A000AF93BF93EF93FF938091F5019091F60162
:1027B000A091F701B091F801892B8A2B8B2B81F125
:1027C0008091F40181110BC098B180E4892788B908
:1027D0008091F301882319F088B1805888B98091DD
:1027E000F5019091F601A091F701B091F80118164A
:1027F00019061A061B06B4F48091F5019091F601B2
:10280000A091F701B091F8010197A109B109809356
:10281000F5019093F601A093F701B093F80102C07F
:102820000E947910FF91EF91BF91AF919F918F918D
:102830007F916F915F914F913F912F910F900FBEBC
:102840000F901F9018959C01E1E7F0E090819D7F2B
:10285000908381E08093F2013093F1012093F001A5
:102860003093EE012093ED010C947910CF92EF920A
:102870000F93CF93DF934115510561F1FA01049154
:102880003196E4904E5F5F4F2223F1F0A1E0B0E07B
:102890003E2D377011F4A0E0B0E03E2D3695369510
:1028A0003695A30FB11D0A9FE0010B9FD00D112497
:1028B00030E0220F331FC29FF001C39FF00DD29F63
:1028C000F00D11244E0F5F1F23E0C22E20E030E0F8
:1028D0000E942711DF91CF910F91EF90CF90089533
:1028E000CF92EF920F93CF93DF934115510539F1BA
:1028F000FA0104913196E4904E5F5F4F2223C9F0B4
:10290000A1E0B0E03E2D377011F4A0E0B0E03E2D24
:10291000369536953695A30FB11D0A9FE0010B9FA2
:10292000D00D11242C9FF0012D9FF00D11244E0F7E
:102930005F1F2AEFC22E20E030E00E942711DF91B6
:10294000CF910F91EF90CF9008952D9A0895BC01EB
:1029500080E090E00C943F138FB12CB193B130E044
:102960002095309520743327A90123E0559547958C
:102970002A95E1F7292F30E02095309520713327F3
:102980003595279535952795242B8095807F822B2B
:10299000089583B7817F83BF83B7816083BF8895A4
:1029A00083B78E7F83BF08958EBD00000DB407FEF0
:1029B000FDCF08951092EC013E983F9808953E9AFD
:1029C0003F9A81E08093EC0108952FE1829FC0013E
:1029D0001124FC01EE59FE4F81E0409145015091D8
:1029E000460121813281241735070CF080E082876F
:1029F0000895843041F0853041F0893041F08730CE
:102A000041F084E1089588E3089580E3089580E427
:102A1000089588E108952F923F924F925F926F92AE
:102A20007F928F929F92AF92BF92CF92DF92EF925E
:102A3000FF920F931F93CF93DF9300D000D0CDB7B9
:102A4000DEB78C836B83862F0E94F914D82E84E026
:102A50008D0D8093E101803208F44EC08BEA91E045
:102A60000E94231452E0C52E67E6462E5524539447
:102A7000612C712C3C812FE1329FC00111248E59B1
:102A80009E4FFC013196FA83E9831C01FAE02F0E78
:102A9000311C0E94B332A30192010E9427334B01E3
:102AA0005C01709342016093410164E0C4010E94A3
:102AB000D51FC0967C01E981FA81808191816AE00D
:102AC00070E00E944936F1018081811103C088EED7
:102AD0009FEF02C088E190E08B01080F191F64E0AE
:102AE000C4010E940420B701800F911F0E94DC1EC8
:102AF000CA94CC2029F0CDCF85E991E00E9423141F
:102B0000809151018111EEC06091450170914601A3
:102B1000FC812F2F30E08FE1F89FF0011124EE5956
:102B2000FE4FA181B2814091E101CB018A1B9B0B39
:102B300097FF03C0919581959109EAE04E9FA0010E
:102B40001124481759070CF4CDC08FE1829FF00182
:102B5000839FF00D1124EE59FE4F528581E0A61798
:102B6000B7070CF080E05813BDC0FB81FF2361F074
:102B7000F23061F0F43061F0F53061F0F93061F07D
:102B8000F73061F081E00BC084E109C089E107C042
:102B900086E105C088E203C08AE001C082E3809339
:102BA000E10190914401980F4091430161E0640F6D
:102BB0009C3318F09C53462FF9CF909344014093D7
:102BC0004301473028F097E090934301109244016D
:102BD0001092500190E04E969595879580934F0105
:102BE00042E040934D0141E045274093520151118D
:102BF00003C091958195910990934A018093490171
:102C000084E0809355019FE1929FF001939FF00D26
:102C10001124EE59FE4F838B85E0C82E97E6492E8E
:102C200055245394612C712C28E0822E912CA12CD8
:102C3000B12C3AE0E32EF12C0E94B332A3019201B1
:102C40000E94273370934201609341010E94B33286
:102C5000A50194010E942733645F80914101909106
:102C600042010E94D51F9A838983809145019091EA
:102C70004601B7010E9449368B010E94B332A5017B
:102C800094010E942733645F809141019091420139
:102C90000E94042069817A81625D7F4F800F911FBD
:102CA0000E94DC1ECA94C110C7CF2FE12D15D0F0B1
:102CB00085E294E00F900F900F900F90DF91CF91ED
:102CC0001F910F91FF90EF90DF90CF90BF90AF904A
:102CD0009F908F907F906F905F904F903F902F903C
:102CE0000C9423140F900F900F900F90DF91CF91C1
:102CF0001F910F91FF90EF90DF90CF90BF90AF901A
:102D00009F908F907F906F905F904F903F902F900B
:102D100008959F92AF92BF92CF92DF92EF92FF926F
:102D20000F931F93CF93DF935C01962EE901642FDD
:102D30000E94D51F025D1F4F080F191F20914501EA
:102D4000309146018091490190914A01820F931F71
:102D50006AE070E00E9449366B01692DC5010E944E
:102D600004208C0F9D1F20915201211103C09195C9
:102D7000819591098E9D90018F9D300D9E9D300D06
:102D80001124B801C601821B930BDF91CF911F91D3
:102D90000F91FF90EF90DF90CF90BF90AF909F90FA
:102DA0000C94DC1E2F923F924F925F926F927F9213
:102DB0008F929F92AF92BF92CF92DF92EF92FF924B
:102DC0000F931F93CF93DF9300D01F92CDB7DEB741
:102DD0004C011B01042F60914501709146017B83DA
:102DE0006A838AE0889D2001899D500C112470908F
:102DF0005201772019F080E590E002C080EB9FEF50
:102E0000CA80DB80C80ED91E6090E1017091540128
:102E1000798312E6E12E11E0F12E711003C0519476
:102E2000419451088A819B81480E591E10E0F70198
:102E300080818823B1F185899689181619068CF549
:102E4000A180B2809501205B3F4FA50140555109FB
:102E5000B201C6010E949B1F882319F1F981FF234B
:102E6000F1F04A815B814A195B0957FF03C0519514
:102E7000419551092FE1269DF0011124EE59FE4F95
:102E8000218132816A817B81621B730B9B0177FFF9
:102E900003C0319521953109421753070CF4612E77
:102EA00089831F5F7FE1E70EF11C143009F0BFCF6B
:102EB0006092E101898180935401809159018823B6
:102EC00009F46BC080916001909161011816190698
:102ED0000CF063C0013009F060C040915A0150917C
:102EE0005B019A01225E3F4F4E5151098AE0889D55
:102EF000B001899D700D1124711003C07195619509
:102F00007109EA81FB816E0F7F1F772019F080E540
:102F100090E002C080EB9FEFEA81FB818E0F9F1F44
:102F20000E949B1F8823C9F180915C0190915D01F3
:102F30008836914094F18BE494E00E9423148091B0
:102F40005E0190915F0197FF03C091958195910972
:102F500023E0880F991F2A95E1F76AE070E00E944C
:102F6000493680915201811103C0719561957109B3
:102F700070935F0160935E018091600190916101A7
:102F8000919581959109873F2FEF920714F086EF75
:102F90009FEF909361018093600180915401882399
:102FA00009F463C1033089F4B1018091E1010E9409
:102FB0009C1E8091E1016FE1869FF0011124EE5982
:102FC000FE4F92E09683108E08C18091E10102309D
:102FD00009F03FC09091580191113BC0909152016E
:102FE000482F50E07FE1879FF0011124EE59FE4FFA
:102FF00021E0A0914501B091460161817281A6173F
:10300000B7070CF020E0921324C02FE1249FF001B9
:10301000259FF00D1124EE59FE4F22859217C9F01D
:103020009185911116C095819250923090F49091B3
:10303000400191110EC091899093DE018093EB01C4
:103040001092EA0110924A011092490114821382EF
:103050005BC09FE1899FF0011124EE59FE4F908DD6
:10306000992321F0909140019923D1F04101E5E0AD
:103070008E0E911C97FE04C04101F6E08F0E911C4C
:103080009594879499241982A7E64A2E552453943F
:10309000612C712CB8E0CB2ED12CE12CF12C37C057
:1030A000013041F4108E29E130E04EE161E00E94F0
:1030B000B21E2AC09185911104C095819250923020
:1030C00030F024E130E04EE160E00E94B21E109248
:1030D00050018091E10190E04E96959587958093FF
:1030E0004F0183E080934D0180915201882319F0B4
:1030F00084E190E002C08CEE9FEF9195819591095B
:1031000090934A01809349018BE494E08AC029811D
:10311000822F90E0881599050CF03FC00E94B332D1
:10312000A30192010E9427337093420160934101F1
:103130000E94B332A70196010E942733645F8091F9
:103140004101909142010E94D51F8C01E091E10163
:103150006FE16E9FF0011124EE59FE4F8181928143
:103160006AE070E00E9449365B010E94B332A70119
:1031700096010E942733645F809141019091420142
:103180000E940420B801645D7F4F8A0D9B1D0E9440
:10319000DC1E79817F5F7983BACFB1018091E10133
:1031A0000E949C1E8091E101282F30E09FE1899FC1
:1031B000F0011124EE59FE4F9289911104C09091B3
:1031C0004001992361F19FE1929FF001939FF00DDF
:1031D0001124EE59FE4F92E0968395E0929DA00156
:1031E000939D500D11249A01225E3F4F37FF02C07C
:1031F0002F5F3F4F35952795332796E0929DB0017D
:10320000939D700D1124AB01425E5F4F57FF02C0CA
:103210004F5F5F4F5595479561E00E94B21E85E272
:1032200094E00E9423148091E1012FE1829FF0013C
:103230001124EE59FE4F25893689232B31F42EE1D6
:1032400030E04CE361E00E94B21E809140018111A8
:103250000CC083E080935501E091E1016FE1E69FAE
:10326000F0011124EE59FE4F838B0F900F900F90B9
:10327000DF91CF911F910F91FF90EF90DF90CF9052
:10328000BF90AF909F908F907F906F905F904F9086
:103290003F902F90089520910502211103C08FEFD8
:1032A0009FEF08955FB7F89422E02093E900209102
:1032B000F20030E01216130614F421E030E0422F41
:1032C000FC0184E6415038F02898809304029091E4
:1032D000F1009193F7CF2115310521F08091F20093
:1032E000882319F05FBFC90108958BE68093E80039
:1032F000F9CF2FB7F89483E08093E9009091E8002C
:10330000892F807295FF04C09091F20080E4891BA0
:103310002FBF08958091520681110DC082E08093E5
:103320004E0684E080934F0610925106109250068C
:1033300081E0809352068EE496E00895CF93DF9368
:103340001F92CDB7DEB76983DC01ED91FC9102805D
:10335000F381E02D41E050E0BE016F5F7F4F0995A2
:103360000F90DF91CF91089583E08093E9008091E1
:10337000F200882319F08AE38093E80008950E9400
:10338000791990E00895CF93DF931F92CDB7DEB700
:10339000FC018485958597FD05C02FEF3FEF3587AC
:1033A00024870BC0CE0101960E944B19019719F496
:1033B000898190E002C08FEF9FEF0F90DF91CF9156
:1033C00008950F931F93CF93DF931F92CDB7DEB76E
:1033D0008C01FC018485958597FF0EC0CE01019676
:1033E0000E944B19019719F4898190E002C08FEF78
:1033F0009FEFF80195878487F801848595850F9064
:10340000DF91CF911F910F910895FC0184859585DF
:1034100097FD0BC09FB7F89482E08093E9008091FC
:10342000F2009FBF90E0019608959FB7F89482E064
:103430008093E9008091F2009FBF90E008958F9201
:103440009F92AF92BF92CF92DF92EF92FF920F9333
:103450001F93CF93DF936C017B018A0180910E0152
:10346000882309F45CC080910502882309F457C0C1
:103470008091030280FF05C08091E000826080930C
:10348000E000E801B12C8AEFA82E93E0892E2AE310
:10349000922E209711F4BB20D9F10E947919811145
:1034A0000AC0AA94AA20D9F161E070E080E090E01F
:1034B0000E943F13EECF282F30E0C217D3070CF441
:1034C0008C2F9FB7F8948092E9002091E80025FFA7
:1034D0001DC0282F30E0C21BD30BF701815020F014
:1034E00041914093F100FACFE20EF31EBB2019F098
:1034F0009092E8000AC08091E80085FD07C0909294
:10350000E800BB24B394209709F0B12C9FBFC1CF32
:103510005D9884E680934D061016110644F081E014
:1035200090E0F6019383828380E090E001C0C801BF
:10353000DF91CF911F910F91FF90EF90DF90CF908F
:10354000BF90AF909F908F900895DF92EF92FF927F
:103550000F931F93CF93DF93D82E8A017B01E40E44
:10356000F51EEB01CE15DF0571F0D7FE03C0FE019D
:10357000849101C088810E945A2421968111F2CF42
:103580008FEF9FEF01C0C801DF91CF911F910F9185
:10359000FF90EF90DF9008950F931F93CF93DF93E9
:1035A0001F92CDB7DEB782E0898342E450E064E544
:1035B00078E080E80E94A51A0E948A19DC01129620
:1035C0000D911C9113970115110589F0D801ED910A
:1035D000FC910280F381E02DBE016F5F7F4FC80137
:1035E000099597FD04C0F80100851185ECCF89810C
:1035F0000F90DF91CF911F910F9108951F93CF935B
:10360000DF93182FD62FC42FE62FF0E0EE0FFF1F09
:10361000E853F74F6591749186E096E00E940A3373
:10362000FC0101900020E9F73197E81BCE1708F460
:10363000EC2FEE0F2C2F4D2F612F80E48E1BDF918E
:10364000CF911F910C94092420914006282329F43E
:1036500090913F06982381E009F480E00895BF929D
:10366000CF92DF92EF92FF920F931F93CF93DF934E
:10367000B02E7C01E40EF11CEB01C20FD11D30E134
:1036800020ECC22E28E0D22E8E159F0564F5AB01EA
:1036900077FF02C040E050E0FE01C134D10514F0D4
:1036A000E0E4F0E04E175F07E4F480389105B0F4F1
:1036B0008A01F601309FD001A0781124A80F07706D
:1036C000E00FF11D2491AA5FBD4FBB2019F0EC91D2
:1036D0002E2B03C02095EC912E232C934F5F5F4F30
:1036E000DBCF0196D1CFDF91CF911F910F91FF904A
:1036F000EF90DF90CF90BF900895809106028EBD2D
:10370000E7E0F2E086E096E021910DB407FEFDCF00
:103710002EBD8E179F07C1F70DB407FEFDCF08958C
:1037200080E0E6E0F2E081118FEF00248193819345
:10373000819381930394D1F708951F920F920FB64E
:103740000F9211248F939F938091E1009091E1005B
:10375000937F9093E10083FF0FC01092E90091E006
:103760009093EB001092EC0092E39093ED00109296
:10377000050298E09093F00082FF20C093E09093C0
:10378000E9009091F200992319F09AE39093E800F0
:1037900090914D06992339F090914D069150909358
:1037A0004D06992389F190910402992339F0909163
:1037B0000402915090930402992341F184FF10C0B8
:1037C0008091E2008E7E81608093E2008091E10032
:1037D0008F7E8093E100809103028E7E806111C014
:1037E00080FF16C08091E2008E7E80618093E200AF
:1037F0008091E1008E7E8093E100809103028E7EB5
:1038000081608093030204C05D9ACDCF289AD6CF01
:103810009F918F910F900FBE0F901F9018951F9240
:103820000F920FB60F921124CF92DF92EF92FF9278
:103830000F931F932F933F934F935F936F937F93B8
:103840008F939F93AF93BF93EF93FF93CF93DF93A8
:10385000CDB7DEB76C97DEBFCDBF1092E900809187
:10386000E80083FFFBC168E0CE0145960E948824F2
:1038700082EF8093E8008D8987FF05C09091E80072
:1038800090FFFCCF03C09EEF9093E800982F9076B6
:1038900009F0C6C09E894F89588D2F89F88C9111E7
:1038A0000CC0803829F4809102028093F10002C09C
:1038B0001092F1001092F10045C1913051F4811144
:1038C00041C14130510509F03DC1809102028D7F17
:1038D0000BC0933061F4811135C14130510509F0BD
:1038E00031C1809102028260809302022BC1953027
:1038F00049F48091E80080FFFCCF822F806880939C
:10390000E30020C1963009F05EC00B8D1C8D22E0D3
:103910001092E9001092010210920002F21232C0DD
:103920001092FF011092FE010E94CC1A99E0BE0194
:103930006F5F7F4FDB01E92F1D92EA95E9F79983CD
:10394000FA8291E09E8390EA98879AEF9987209176
:10395000000230910102275F3F4F3C832B838D8310
:103960001092E90010920102109200021093FF01E0
:103970000093FE0149E050E080E00E94A51A0E94F9
:10398000CC1AE0C01093FF010093FE010E948A1937
:10399000DC0112960D911C9113970115110509F484
:1039A000BBC0D801ED91FC910480F581E02DBE01F2
:1039B0006B5E7F4FC8010995009709F0C7C0F801F9
:1039C00000851185EACF973009F445C1983021F47C
:1039D00081E08093F100B6C0993009F0B3C08370E4
:1039E00009F039C1EDE1F1E081E031E096E32081B9
:1039F000211109C08EE78093EA001092EA008F89B6
:103A0000809305029FC08093E9003093EB002191E1
:103A10002093EC009093ED008F5F873041F7EACF61
:103A20008B8D9C8D1092E900109201021092000281
:103A30009093FF018093FE01898D811153C08E897F
:103A40009D89913A49F4813209F005C147E050E07F
:103A500067E071E080E0BBC0913209F0FCC08332C6
:103A600069F48F89988DA0E0B0E080930301909372
:103A70000401A0930501B093060164C0803269F48B
:103A80008091E80082FFFCCF67E087E091E00E9430
:103A900088248BEF8093E80055C0823209F052C031
:103AA0008F8980930E01EEEFFFE7859194918B3F14
:103AB0009C4D19F0E0E0F8E002C0EEEFFAE08091F2
:103AC000070190910801A0910901B0910A01803B82
:103AD0009440A105B10509F09EC080910E0180FFC0
:103AE00079C099C00E948A19FC01028113810115D5
:103AF000110509F4B0C0D801ED91FC910190F0815D
:103B0000E02DBE016B5E7F4FC801099581111AC07F
:103B1000F80100851185EBCFF1E0FF1609F44EC0E6
:103B2000F3E0FF1298C08F89882309F44AC08230DD
:103B300089F440E867E088EB98E00E94FD31882333
:103B400009F489C08EEF8093E80088C01816190622
:103B5000CCF381C0813029F440E86BE08CEA98E036
:103B6000ECCF833009F077C00E948A19DC011296ED
:103B7000ED90FC9013978E010F5F1F4F6801E114C9
:103B8000F10479F0D701ED91FC910680F781E02DE9
:103B9000B801C7010995080F111DF701E084F184F0
:103BA000EECFD8011C92F60101900020E9F7319781
:103BB000BF016C197D0940E0C601BFCF6AE978E01A
:103BC00002C066E978E0FB01449150E080E80E9481
:103BD000A51AB8CFEE3F2AE0F20751F0808191811B
:103BE0008737A7E79A0721F09093FF0A8093FE0A90
:103BF00087E797E7918380838091600080934C06EC
:103C00009BE088E10FB6F894A895809360000FBE02
:103C10009093600097CF808191818737974709F013
:103C200091CFA89580916000886180936000809119
:103C30004C0680936000EE3FBAE0FB0739F08091BC
:103C4000FE0A9091FF0A918380837CCF1092FF0A35
:103C50001092FE0A77CF81E28093EB006C960FB64C
:103C6000F894DEBF0FBECDBFDF91CF91FF91EF91F2
:103C7000BF91AF919F918F917F916F915F914F9184
:103C80003F912F911F910F91FF90EF90DF90CF9078
:103C90000F900FBE0F901F901895E2E6F1E090E0B4
:103CA0008081882331F025893689121613060CF499
:103CB0009F5F7F9681E0EE3DF80791F79093E101D9
:103CC00081E0911180E008959FEB980F9A3100F107
:103CD0009FE9980F9A31E0F090ED980F9A3010F428
:103CE000865108958E32B1F08C32B1F08732B1F046
:103CF0008132B1F08F33B1F08032B1F08F35A1F065
:103D00008036A1F08F32A1F08A33A1F08FEF0895B1
:103D1000892F089584E2089585E2089586E2089542
:103D200087E2089588E2089589E208958AE2089575
:103D30008CE208958DE208952FE18202C0011124E2
:103D4000FC01EE59FE4F85899689681779072CF496
:103D5000861B970B968B858B0895168A158A82E0B1
:103D600086830895A82F082E000CBB0B9FE18902C3
:103D7000F0011124EE59FE4F658347839091520163
:103D8000911103C03195219531098FE18A9FF0018E
:103D90008B9FF00D1124EE59FE4F3483238311863F
:103DA00081E0892782870895E5E4F1E081E0838757
:103DB00012861086148608952091B80636E0239F57
:103DC000F0011124E654F94F31E03083928381836E
:103DD000748363831582233120F42F5F2093B80608
:103DE00008951092B80608951816190614F401974C
:103DF0000895009711F00196089580E090E00895ED
:103E0000109233071092320788E893E190934601AD
:103E100080934501109248011092470110924A0187
:103E20001092490110924C0110924B0110924D01D9
:103E300010924E0110924F0181E080935001109238
:103E400051018093520180935301109254011092BA
:103E50005501109256018093570110925801EAEBD8
:103E6000F6E01082369687E0E233F807D1F7109239
:103E70006201109281011092A0011092BF01109274
:103E8000590110924301109244018CE38093B906CA
:103E900086E98093000108956F927F928F92AF928E
:103EA000CF92EF920F93CF93DF93CDB7DEB7AC8570
:103EB000BD859F85682E712C3FE1839FF001112401
:103EC000EE59FE4F81E080837283618314821382F6
:103ED00015821682178210868187683873410CF02C
:103EE00080E082878FE1869DF001879DF00D11248F
:103EF000EE59FE4F4387248715860687E786C08ADA
:103F0000A18A828A8E85848BB68BA58B8CE3878B66
:103F1000908F918F86E9828F8889838F148EB68FD8
:103F2000A58FDF91CF910F91EF90CF90AF908F90B1
:103F30007F906F9008958617970770F44817590778
:103F400020F064177507D0F02EC02817390770F0DD
:103F50006217730740F027C084179507A0F0461733
:103F60005707F0F020C084179507E8F46417750729
:103F700040F081E026173707B8F403C02817390747
:103F800038F780E008958217930780F326173707E4
:103F900050F484179507A8F32817390790F303C046
:103FA0008217930798F781E00895CF92DF92EF92FE
:103FB000FF92CF93C62FBC01990F880B990B0E94DB
:103FC000A63425E33AEF4EE85CE30E9471350E9487
:103FD000DE356B017C01F7FAF094F7F8F0946C2F62
:103FE00070E080E090E00E94A4349B01AC01C70126
:103FF000B6010E9471350E946E34CB01CF91FF90C3
:10400000EF90DF90CF900895CF92DF92EF92FF92E2
:10401000CF93C62FBC01990F880B990B0E94A63431
:1040200025E33AEF4EE85CE30E9471350E94F733D6
:104030006B017C016C2F70E080E090E00E94A43462
:10404000A70196010E9471350E946E34CB01CF9179
:10405000FF90EF90DF90CF90089580914001811103
:1040600007C081E09091DE01911103C080E00895C6
:1040700081E008958091E601809581700895AF9266
:10408000BF92CF92DF92EF92FF920F931F93CF9345
:10409000DF9380914501909146016AE070E00E94B3
:1040A00049368B01005411091093330700933207EE
:1040B00080914001882329F080914001811174C0D2
:1040C00075C0C80168E070E00E944936C8EFDFEFB4
:1040D000C81BD90B28E830E07901E81AF90A20E07A
:1040E0004AE050E268E370E0CE010E947014289626
:1040F000CE15DF05A1F720E048EE5FE168E270E051
:1041000080EE90E0801B910B0E94701420E048EE3E
:104110005FE168E270E088EF92E0801B910B0E9403
:104120007014C80160E370E00E944936C8EEDFEF0A
:10413000C81BD90BBB24BA947CE3E72EF12CE0E337
:10414000AE2EF4E6CF2ED12C8091440124E6829F3E
:10415000C0011124B7010E944936A69EC001A79E46
:10416000900D1124B6010E944936CB017093420193
:10417000609341016B2D617867FF03C061506E6FE2
:104180006F5FE8E06E02B001112420E04EEC5FE1C9
:10419000FE01E81BF90BCF010E947014B3946896DE
:1041A000F9E0BF12D1CF88CF80FFEFC1CAEBD6E0D4
:1041B00052E3C52E57E0D52E63E0E62E8881882392
:1041C000E9F0FD806B817C816450710989819A815D
:1041D000801B910B2F2D4AE45FE104970E94361457
:1041E0008091E6016E2D0E942F36911107C022E0CA
:1041F0002F1518F0F394FD8201C018822696CC1674
:10420000DD06E1F6C2E6D1E03EEDC32E31E0D32E6D
:104210004AE0E42EF12C8881882309F442C08D897C
:104220009E891816190624F00E943A208823C9F1A5
:10423000898581110CC08D818250823040F40E94AA
:104240003A20882321F00E942D20882351F13C89B7
:104250002A8589819A813111BDC1B7010E944936F1
:10426000CB01801B910B222309F499C12E8142EFCF
:104270005DE160E270E009970E9436148E81823021
:1042800080F489819A81B7010E944936CB01801B55
:10429000910B288540E85AE168E270E004960E949C
:1042A00036146F96CC16DD0609F0B5CF8091430128
:1042B000873020F00E943A20882391F080915101AC
:1042C000882309F4C5C10E943A20882349F020E0E0
:1042D00040EF50E165E270E089E390E00E9436141F
:1042E00080915901882319F18091E60190E00197AE
:1042F0006FE070E00E944936262F80915C0190911A
:104300005D01EAE0F0E0BF010E944936EB018091D7
:104310005A0190915B01BF010E944936CB01801B7D
:10432000910B46E35CE0BE0104970E9436140E94A4
:104330002D2081113CC00E944D1E811108C080912A
:10434000B906823008F4A5C181508093B9060E9455
:104350002D2081112CC08091DE01811128C0809117
:1043600043018111ACC181E380930F0182E380930B
:1043700010018091440120E3280F8A3008F0A4C185
:1043800080E3809312012093130100E028E042E2D1
:1043900060E070E080E090E00E942F1B0E943A20D5
:1043A00081119EC180914301863009F099C18091AD
:1043B000DE01882309F46AC02091EA014AE359E04A
:1043C00064E170E084E390E00E94361480E80E948B
:1043D000241BC091EA01882319F0CC2309F4A7C15A
:1043E00080E40E94241B882319F0C13009F49FC186
:1043F00080E10E94241B882319F0C23009F497C180
:1044000080E20E94241B882319F0C33009F48FC175
:104410008091EA018430E1F410925401109250012D
:1044200010924F0180934D0181E080935101E09102
:10443000EB012FE1E29FF0011124EE59FE4F92E0D3
:10444000968385838CE387831186178A128E19C021
:104450008091DE01823020F081508093DE0116C011
:10446000E091E1018FE1E89FF0011124EE59FE4F48
:10447000178282E080934D018CE380934F0110926C
:10448000500186E9809358011092DE018091580115
:10449000882339F08F3108F04EC10E943A208111F3
:1044A0004AC18091E20190E0019665E070E00E94CF
:1044B0004936892B09F058C000E029E040E460E06B
:1044C00070E088E290E00E942F1B01E026E044E3C8
:1044D00060E070E083E390E00E942F1B00E024E0A6
:1044E00042E361E070E084E390E00E942F1B609162
:1044F000770170917801161617066CF5072E000CDF
:10450000880B990B0E94A6346B017C0160917F019E
:1045100070918001072E000C880B990B0E94A63425
:104520009B01AC01C701B6010E94FC3320E030E0E2
:1045300040E452E40E9471350E947534AB01672B50
:1045400011F441E050E001E022E062E070E085E338
:1045500090E00E942F1B20E046E259E060E070E00E
:1045600089E290E00E94701480914001882319F044
:104570008150809340010E944D1E8111EFC08091B7
:104580004301873009F025C1E9C020E04CE85FE134
:1045900060E070E080E090E00E94361407CE2E814B
:1045A00048E259E160E270E009970E9436148E817A
:1045B000823008F076CE89819A81B7010E9449360F
:1045C000CB01801B910B288546EB55E168E270E03A
:1045D000499765CEB7010E944936CB01801B910BEC
:1045E0002223D9F02E8144E753E168E170E00C9773
:1045F0000E9436148E81823008F053CE89819A81D0
:10460000B7010E944936CB01801B910B288540E8F9
:104610005AE168E270E0089642CE2E8142E351E111
:1046200068E170E00C970E9436148E81823008F0A9
:1046300038CE89819A81B7010E944936CB01801B0F
:10464000910B288546EB55E168E270E04E9727CE46
:1046500090915201809147016AE0992361F00E9494
:104660003B36682F880F770B605E7F4F20914E019D
:1046700044EB5EE00BC00E943B36682F880F770B3F
:10468000605E7F4F20914E0148E75CE086E390E05A
:1046900025CE80914301873008F059CE9CE390935A
:1046A000B906909144019B3320F49F5F909344019D
:1046B0004ECE8F5F809343011092440148CE90E22A
:1046C00090930F01805D53CE6AE00E942F3690E3F5
:1046D000980F909312019AE0899F2019112453CECC
:1046E00010E02FE0E22E21E0F22EF70101900020F1
:1046F000E9F73197EF50F140C12FD0E0CE17DF0737
:1047000008F055CEFE01E15FFE4F80810E94641EDD
:10471000CC0FDD1FCC0FDD1F282F4CE75BE060E0E6
:1047200070E0CE0101960E9470141F5FDECFCF5F54
:10473000C093EA016DCE00E029E048E060E070E05F
:1047400088E790E00E942F1B20E041E359E060E001
:1047500070E089E790E00E947014A3CE10924001AF
:1047600080910001882321F081508093000131C0A5
:1047700080914301873051F486E0809302018EE1FD
:104780008093E50181E08093010123C08091E201E3
:104790008E30C8F493E0909302011092E4011092DD
:1047A000E3019EE19093E5018F5F8093E201DF9149
:1047B000CF911F910F91FF90EF90DF90CF90BF901E
:1047C000AF900C94001F85E0809302018EE18093EE
:1047D000E501DF91CF911F910F91FF90EF90DF9056
:1047E000CF90BF90AF900895E82FF0E0EE0FFF1F3D
:1047F000E853F74F6591749186E096E00E940A3382
:10480000FC0101900020E9F731972E2F281B822F01
:104810000895AF92BF92CF92DF92EF92FF920F93E3
:104820001F93CF93DF93022F10E0C42FD0E0CC0F63
:10483000DD1FC853D74FA62EB12CC82ED12CFE0198
:104840006591749186E096E00E940A33FC01019024
:104850000020E9F73197E81B0E1708F4E02F1E1728
:10486000F0F4FE016591749186E096E00E940A33AF
:10487000E12EF12C8E0D9F1DFC0180810E94641E93
:10488000EE0CFF1CEE0CFF1C282F4CE75BE0B50183
:10489000C7018C0D9D1D0E9470141F5FD0CFDF914A
:1048A000CF911F910F91FF90EF90DF90CF90BF902D
:1048B000AF90089540910002509101022091FE01B5
:1048C0003091FF0142175307B4F49091E8009570BE
:1048D000E1F39091E80092FD19C08093F10080917E
:1048E00000029091010201968F739927892B19F488
:1048F0008EEF8093E8008091000290910102019672
:10490000909301028093000281E0089580E0089571
:10491000615030F02091F100FC0120830196F8CF26
:10492000289884E6809304020895789484B5826080
:1049300084BD84B5816084BD85B5826085BD85B543
:10494000816085BD80916E00816080936E001092C1
:10495000810080918100826080938100809181003C
:1049600081608093810080918000816080938000CD
:10497000809191008260809391008091910081608C
:10498000809391008091900081608093900080914D
:10499000C10084608093C1008091C10082608093D7
:1049A000C1008091C10081608093C1008091C300EB
:1049B00081608093C3008091C00082608093C000BA
:1049C0008091C20081608093C20080917A008460EF
:1049D00080937A0080917A00826080937A0080913F
:1049E0007A00816080937A0080917A008068809359
:1049F0007A00109205021092020210920302809136
:104A0000D70081608093D70080EA8093D80089B571
:104A1000806189BD89B5826089BD09B400FEFDCF82
:104A200061E070E080E090E00E943F138091D80048
:104A30008F7C80618093D8008091E000807F80939C
:104A4000E0008091E1008E7E8093E1008DE0809314
:104A5000E200559A209A81EC80937C0085B1806FAA
:104A600085B9249884B1866E84B95E9A5F988AB1BC
:104A7000806D8AB9769A6E9881B3806F81BB899870
:104A800080B38D7080BB80E58CBD81E08DBD85E0FD
:104A900090E00E94A7145F9A85E090E00E94A7141E
:104AA0005E985C98C8E8D1E0FE0184910E94D4141D
:104AB0002196F1E0C539DF07B9F75C9A81E8809368
:104AC000640081E080936500C0E0D4E080E00E9453
:104AD000D4142197D9F70E94AC1487FF1FC05C98AB
:104AE00085EA0E94D4145C9A2E982F982D98809174
:104AF00064008062809364000E94C914FDCF2D98E9
:104B00000E94AC148478843871F00E94AC148471D3
:104B1000843131F188EC90E00E94A7140E94AC141B
:104B200082FDEDCF3AC00E94A51488EC90E00E946F
:104B3000A7142F9882E090E00E9411338F3F29F054
:104B40006FEF82E090E00E94193384EF91E00E94C1
:104B5000A7142F9A0E94AC1484788438D9F3D5CF47
:104B60000E94A51488EC90E00E94A7142E9882E081
:104B700090E00E941133882329F060E082E090E009
:104B80000E94193384EF91E00E94A7142E9A0E948C
:104B9000AC1484718431D9F3BDCF0E94A51482E096
:104BA00090E00E941133882319F00E94DF1402C0A4
:104BB0000E94DA142E98CEEEDFEF08E010E00E949B
:104BC000AC1486FF05C02E9A2F9A0E94A5147DC0B2
:104BD000CC3F2FEFD20719F42E9A2F9805C0C83179
:104BE000D10511F42F9A2D980E94901BC03F3FEFE2
:104BF000D30784F40E947D1B8BE190E00E94A714F0
:104C0000C03F4FEFD40709F055C08AEF90E00E94F3
:104C1000A71450C09E01D7FF04C0222733272C1BA6
:104C20003D0B27703327CE01D7FD079673E095958E
:104C300087957A95E1F7D7FF05C00197F801E21B48
:104C4000F30B9F01AC015695542F44275795479578
:104C50004A5F5D4FA0E0B0E05801A21AB30A8F3F4F
:104C6000FFEF9F074CF40196A85ABF4F40585F4F83
:104C7000A03BB105A1F7BECF7A0164E9E60EF11CB5
:104C80006A0160E070E08F3FEFEF9E0709F4ADC569
:104C9000FB01EA0FFB1FE852FF4FE491F0E04F01E8
:104CA000022E01C0880C0A94EAF7F601948889283C
:104CB000848A9BC52196C931D10509F080CF8CEB40
:104CC00092E00E94A7140E94A51482E390E00E9443
:104CD000A7140E94AC148111F8CF80E180934106A3
:104CE0000E94DF140E94DA14809164008E7F80930A
:104CF000640080917A00806480937A0080917A00C9
:104D000086FDFCCFC0917800D09179000E941A13E3
:104D10008E0120E030E0980111270027600F711FFD
:104D2000821F931F611571058105910511F00E9485
:104D30000133809164008160809364000AE0402E1A
:104D4000512C1CE4212E1DE1312E2FB7F8948091B7
:104D50003C0190913D01A0913E01B0913F012FBFD8
:104D600020914A06222341F020914206821B809323
:104D70004B0610924A0631C54091460650914706AF
:104D8000609148067091490684179507A607B707F2
:104D900038F4481B423008F420C50E94C9141DC5D0
:104DA00021E020934A068093420690934306A09305
:104DB0004406B093450620914106820F911DA11D26
:104DC000B11D8093460690934706A0934806B09382
:104DD000490680913D0690913E06019690933E06CD
:104DE00080933D0680913F06809340060E94AC145C
:104DF00080933F068091E601823010F0815001C01F
:104E00008CE38093E6018091E901823010F08150BB
:104E100001C080E68093E9018091E801882319F0C0
:104E200081508093E8018091E501882311F0815041
:104E3000A0C080910201833009F45FC030F481305A
:104E400071F0823009F44EC0BBC0863009F470C0E6
:104E5000873009F4ABC0853009F0B2C08DC088E05E
:104E60000E94241B882381F082E08093020110922B
:104E7000E4011092E3011092E2018FE08093E501DA
:104E800085E294E00E94231484E00E94241B88237E
:104E900009F496C08091E701823020F48F5F8093FF
:104EA000E70102C01092E701C091E701C11103C000
:104EB0000E94DA1414C0C13049F40E94DF14109229
:104EC000E0011092DF01C093E00109C0C23039F463
:104ED0001092E0011092DF0181E08093DF018BE10D
:104EE00094E08EC788E00E94241B8111A0C484E056
:104EF0000E94241B81119BC463C09091E3018091A7
:104F0000E201865FFFE09F9F800D11240E94F42341
:104F1000D82F8093E10188E00E94241BC091E40116
:104F20008111B4C484E00E94241B8111AFC481C4E8
:104F300080E80E94241B81114EC780E10E94241B3F
:104F4000811149C788E00E94241B811105C084E0BB
:104F50000E94241B8823A1F185E294E00E9423147F
:104F600080910101882309F441C783E08093020105
:104F70008EE18093E50124C08091E301885D0E9469
:104F8000F423D82F8093E10188E00E94241BC09174
:104F9000E301811106C084E00E94241B882309F4E8
:104FA0005DC4C53009F05AC487E023C788E00E9479
:104FB000241B81111DC784E00E94241B811118C786
:104FC0000E94901B8091E501811105C4F0900201BF
:104FD0008F2D90E0FC013197E730F10508F0FBC31D
:104FE000EA5AFF4F0C945D3620E041E253E060E066
:104FF00070E089E090E00E94701420E04DEE51E0F6
:1050000060E170E08DE490E00E94701422E341E0E2
:1050100068E180E00E94092422E342E068E280E047
:105020000E9409244091E7014D5F22E360E38CE098
:105030000E940924D0C342E366E084E10E94FE1A84
:1050400042E367E0C5C38091E3014091E40152E38C
:10505000859F400D11246091E201665F84E10E940A
:10506000FE1A8091E301882309F4B5C36091E2013F
:10507000675E4091E401ACC38091DE0181110FC0F5
:10508000C0915801CC2321F00E943A208111BBC667
:1050900080915501882371F081508093550102E67B
:1050A00011E0E801F12CEE24E39488E7782E9EE1EC
:1050B000692ED5C2809143018730D9F510925001F5
:1050C0008CE380934F0182E080934D0184E08093D4
:1050D0004E01109251010E94B3322AE530E040E0C7
:1050E00050E00E9427338B01035D1F4F1093420154
:1050F000009341018091E60163E00E942F369111F7
:1051000018C06AE0C8010E94D51FEC016AE0C8011E
:105110000E9404209C01AC9680914501909146012B
:10512000B2010E944936CB01BE01820F931F0E943B
:10513000DC1E80915001882309F462C080915301E4
:1051400081110BC08091490190914A010E94F41E87
:1051500090934A018093490153C08091DE018111EF
:105160004FC00E94AC14C82F0E94AC1491E086FF7F
:1051700090E081E0C5FF80E0981349C68091490125
:1051800090914A010E94F41E90934A018093490134
:1051900088E00E94241B882309F4B0C680914D0149
:1051A0008111ACC6309140013111A8C61092500156
:1051B00081E080934D0120915201211163C662EE7E
:1051C0007FEF81E080935101C0914501D09146016C
:1051D000B0915601E2E6F1E0332309F456C6FA94A1
:1051E0007F96F110F9CF70934A0160934901B09313
:1051F00056018EE180934F0130934001209352017C
:1052000020914501309146018091490190914A01D8
:10521000820F931F843C29E092073CF444EC59E050
:10522000509346014093450109C08D349D4154F08F
:105230008CE49DE1909346018093450110924A01D0
:10524000109249010E94B33227E631E040E050E07D
:105250000E9427336B017C017093420160934101EE
:10526000809151018823F9F08091E60163E00E946A
:105270002F36911118C066E0C6010E94D51FEC01BF
:1052800066E0C6010E9404209C01AC968091450115
:1052900090914601B2010E944936CB01BE01820FB6
:1052A000931F0E94DC1E8091500120914D018823A4
:1052B00009F401C180915601882319F0815080932F
:1052C00056018091490190914A01892B19F410925D
:1052D0004E0123C03091E901832F60E30E942F36F5
:1052E000482F832F90E0E0E34E9F8019910911240D
:1052F00001976CE070E00E9449366093E10160FD27
:1053000002C081E003C0613021F482E080934E014D
:1053100004C0633011F460934E01222309F479C173
:1053200060914F012130B1F58091570181110AC080
:1053300070E0635D7F4F660F771F7093420160934B
:1053400041010AC087E890E0861B9109880F991FE8
:105350009093420180934101C0914101D09142015B
:10536000EE24E394F12C00E010E020E030E044E093
:105370006CE1CE010E94891680915401811180C098
:10538000C758D109CB35D10508F07AC040E063E0B9
:1053900070E037C02230C1F570E080E090E00E94FC
:1053A000A63426E636E646E750E40E94713520E052
:1053B00030E042ED52E40E948B330E946E344B0188
:1053C0005C017093420160934101EE24EA94FE2C4B
:1053D00000E010E027E030E04CE065E1C4010E940D
:1053E00089168091540181114BC0FBE38F1AF1E0C3
:1053F0009F0A1BE58116910408F042C041E064E079
:1054000070E08CE190E03AC02330D1F570E080E0AC
:1054100090E00E94A63420E030E040E650E40E9494
:1054200071359B01AC0160E070E887EF93E40E9466
:105430008A330E946E344B015C0170934201609389
:105440004101EE24EA94FE2C0CEF1FEF27E030E040
:1054500042E16EE0C4010E948916809154018111DD
:105460000FC02BE3821A21E0920A3BE583169104D8
:1054700038F442E067E070E085E190E00E94D216E7
:1054800080914F018A3528F010924D0110924F0102
:10549000C0C09091DE019111BCC090914D0191303E
:1054A00011F4875F03C0923021F48B5F80934F012A
:1054B000B0C08C5FFBCF2130F9F480914F01811196
:1054C0004AC010924A0110924901809156018823E6
:1054D00041F092E090934D0180934F011092510161
:1054E00002C00E94D41E8091560190E0CC96959502
:1054F0008795809356017BC0223021F484E080930D
:105500004E0122C0233049F58091E601622F0E94AE
:105510002F36911117C08091450190914601B2013B
:105520000E9449369B0180915201882319F088E03E
:1055300090E002C088EF9FEF68E370E0820F931F56
:105540000E94DC1E10924E0180914F01811103C018
:105550000E94D41E4CC0815048C0243009F047C07E
:10556000D0904F0144E0D49EE0011124CE018D96ED
:1055700090934201809341014D2D5CE15D1508F44B
:105580004CE16D2DE5E1ED1508F465E1EE24E394C1
:10559000F12C0FEF1FEF20E030E00E9489164D2D17
:1055A000FEE0FD1508F44EE06D2D6B3008F06AE06A
:1055B000EE24E394F12C0FEF1FEF20E030E0CE015A
:1055C0008F519F4F0E94891680915401811107C00D
:1055D00043E06CE070E085E190E00E94D21680919B
:1055E0004F018A3508F0B4CF8D5F80934F018091D1
:1055F0004001882321F080914D01813051F080914C
:10560000490190914A010E94F41E90934A018093AF
:1056100049012091450130914601809149019091C5
:105620004A01820F931F9093460180934501209178
:1056300047013091480180914B0190914C01820FBC
:10564000931F909348018093470129CD0E942D20FC
:10565000882349F0F3946F9644E0F41651F0888162
:105660008823C1F3F3CF80914301873008F47DC4D0
:10567000F1CF80915901882309F448C0C091E60117
:10568000C0FD44C00E942D20811140C08C2F66E0D7
:105690000E942F36911113C080915C0190915D01A1
:1056A000B2010E9449369B0180915A0190915B01A1
:1056B000B2010E944936CB01B9010E94DC1E209143
:1056C0006001309161012F5F3F4F30936101209362
:1056D0006001C0915A01D0915B0180915E0190916F
:1056E0005F01C80FD91FD0935B01C0935A0180910D
:1056F0005C0190915D01820F931F883052E0950705
:105700000CF0BAC590935D0180935C010E943F202C
:1057100062C080910101882309F466C60E943A2084
:10572000811162C680910101811164C60E943A20F4
:10573000811160C650C08091E301C2E34091E40151
:105740008C9F400D112468E284E00E94FE1A809133
:10575000E301882351F081504091E4018C9F400D7A
:10576000112469E28CE00E94FE1A8091E3018230EC
:1057700058F082504091E40132E3839F400D1124A0
:105780006AE28CE10E94FE1A8091E301833058F0B6
:1057900083504091E40152E3859F400D11246BE258
:1057A00084E20E94FE1A8091E3018430A0F08450CC
:1057B0004091E40162E3869F400D11246CE284E392
:1057C00008C042E36DE284E10E94FE1A42E36EE209
:1057D00084E20E94FE1A0E947D1B80E090E0892BEB
:1057E00009F4B3CA0E940000ACCA2115310591F03A
:1057F000FB01EA0FFB1FE852FF4FE491F0E04F017D
:105800000A2C02C0959487940A94E2F7F7019080DD
:10581000892880826F5F7F4FFFEFEF1AFF0AEFEF5B
:10582000CE1ADE0A6835710509F02DCA1CCA83E05C
:10583000E0C2CD1740F48091E601837021F4CF5F80
:10584000C093E4011AC08091E3018111B9CBCD1757
:1058500008F4B6CB81E08093E30115C0C53008F0B1
:10586000AFCB8091E4018D1758F49091E6019370CD
:1058700009F0A6CB8F5F8093E40181E194E0C0C280
:10588000CF5FC093E3011092E4019ACBCD1738F4B7
:1058900082E38093E40181E08093E301AFC284E07E
:1058A000809302011092E4011092E3018EE1809353
:1058B000E5010E94001F8091E201811112C01F9238
:1058C0001F921F921F9289E18F9388248394B4EBD7
:1058D000AB2ECCE3CC2EDCE3ED2E03E020E040E069
:1058E0006FC2813081F51F921F921F921F9282E337
:1058F0008F938824839476E9A72EECE3CE2EFCE3E5
:10590000EF2E04E022E042E060E777E180E00E94D1
:105910004C1F1F921F921F921F9289E18F93A4EB3D
:10592000AA2E03E020E040E060EA7FE081E00E94F0
:105930004C1F2DB73EB7265F3F4F0FB6F8943EBFC2
:105940000FBE2DBF5BC2823009F04EC01F9281E0B6
:105950008F931F921F9281E28F938824839496E9FC
:10596000A92E2DE2C22E3DE2E32E05E022E042E028
:1059700068E57BE180E00E944C1F1F921F921F92FE
:105980001F92C9E1CF9344EBA42E5CE3C52E6CE3D8
:10599000E62E03E020E040E060E777E181E00E944E
:1059A0004C1F1F921F921F921F92CF9320E040E046
:1059B00060EA7FE082E00E944C1F1F921F921F92BC
:1059C0001F92CF9304E020E040E068EB7BE083E0AF
:1059D0000E944C1F4DB75EB74C5E5F4F0FB6F894F8
:1059E0005EBF0FBE4DBF0AC2833081F51F921F926A
:1059F0001F921F9282E38F9388248394D6E9AD2E61
:105A00001CE3C12E0DE2E02E03E020E044E060E75D
:105A100077E180E00E944C1F1F9281E08F931F92DC
:105A20001F9281E28F938DE2C82E06E022E042E0D1
:105A300060EA7FE081E00E944C1F8DB79EB70A9616
:105A40000FB6F8949EBF0FBE8DBFD8C1843091F4BD
:105A500081E08F938F931F921F928DE78F93812CFC
:105A6000A8E7AA2EBDE2CB2ECEE1EC2E05E020E089
:105A700044E0A6C1853099F51F921F921F921F9294
:105A8000CBE4CF938824839446E9A42E5DE2C52E0F
:105A90006EE1E62E07E022E044E060E777E180E097
:105AA0000E944C1F1F9281E08F931F921F92CF93F1
:105AB000812C78E7A72EECE3CE2EFDE2EF2E03E05B
:105AC00020E044E060EA7FE00E944C1FEDB7FEB7A3
:105AD0003A960FB6F894FEBF0FBEEDBF8FC1863069
